{
  "contractName": "PartTime",
  "abi": [
    {
      "constant": true,
      "inputs": [
        {
          "name": "",
          "type": "uint256"
        }
      ],
      "name": "jobData",
      "outputs": [
        {
          "name": "id",
          "type": "uint256"
        },
        {
          "name": "creator",
          "type": "address"
        },
        {
          "name": "salary",
          "type": "uint256"
        },
        {
          "name": "start",
          "type": "uint256"
        },
        {
          "name": "end",
          "type": "uint256"
        },
        {
          "name": "timeOut",
          "type": "uint256"
        },
        {
          "name": "title",
          "type": "bytes"
        },
        {
          "name": "description",
          "type": "bytes"
        }
      ],
      "payable": false,
      "stateMutability": "view",
      "type": "function"
    },
    {
      "constant": true,
      "inputs": [],
      "name": "MINIUM_SALARY",
      "outputs": [
        {
          "name": "",
          "type": "uint256"
        }
      ],
      "payable": false,
      "stateMutability": "view",
      "type": "function"
    },
    {
      "constant": true,
      "inputs": [],
      "name": "totalJob",
      "outputs": [
        {
          "name": "",
          "type": "uint256"
        }
      ],
      "payable": false,
      "stateMutability": "view",
      "type": "function"
    },
    {
      "anonymous": false,
      "inputs": [
        {
          "indexed": true,
          "name": "id",
          "type": "uint256"
        },
        {
          "indexed": false,
          "name": "creator",
          "type": "address"
        },
        {
          "indexed": false,
          "name": "salary",
          "type": "uint256"
        },
        {
          "indexed": false,
          "name": "timeOut",
          "type": "uint256"
        }
      ],
      "name": "NewJob",
      "type": "event"
    },
    {
      "anonymous": false,
      "inputs": [
        {
          "indexed": true,
          "name": "id",
          "type": "uint256"
        },
        {
          "indexed": true,
          "name": "labor",
          "type": "address"
        }
      ],
      "name": "TakeJob",
      "type": "event"
    },
    {
      "constant": false,
      "inputs": [
        {
          "name": "timeOut",
          "type": "uint256"
        },
        {
          "name": "title",
          "type": "bytes"
        },
        {
          "name": "description",
          "type": "bytes"
        }
      ],
      "name": "createJob",
      "outputs": [
        {
          "name": "jobId",
          "type": "uint256"
        }
      ],
      "payable": true,
      "stateMutability": "payable",
      "type": "function"
    },
    {
      "constant": false,
      "inputs": [
        {
          "name": "jobId",
          "type": "uint256"
        }
      ],
      "name": "takeJob",
      "outputs": [],
      "payable": false,
      "stateMutability": "nonpayable",
      "type": "function"
    },
    {
      "constant": true,
      "inputs": [
        {
          "name": "jobId",
          "type": "uint256"
        }
      ],
      "name": "viewJob",
      "outputs": [
        {
          "name": "id",
          "type": "uint256"
        },
        {
          "name": "creator",
          "type": "address"
        },
        {
          "name": "salary",
          "type": "uint256"
        },
        {
          "name": "start",
          "type": "uint256"
        },
        {
          "name": "end",
          "type": "uint256"
        },
        {
          "name": "timeOut",
          "type": "uint256"
        },
        {
          "name": "title",
          "type": "bytes"
        },
        {
          "name": "description",
          "type": "bytes"
        }
      ],
      "payable": false,
      "stateMutability": "view",
      "type": "function"
    }
  ],
  "bytecode": "0x6060604052341561000f57600080fd5b610bc88061001e6000396000f300606060405260043610610078576000357c0100000000000000000000000000000000000000000000000000000000900463ffffffff16806326bab63c1461007d57806348955b091461012f5780635fb2af0e146102c75780636e2ea84f146102f05780639330d9bc14610319578063e8deefed1461033c575b600080fd5b610119600480803590602001909190803590602001908201803590602001908080601f0160208091040260200160405190810160405280939291908181526020018383808284378201915050505050509190803590602001908201803590602001908080601f0160208091040260200160405190810160405280939291908181526020018383808284378201915050505050509190505061049a565b6040518082815260200191505060405180910390f35b341561013a57600080fd5b6101506004808035906020019091905050610692565b604051808981526020018873ffffffffffffffffffffffffffffffffffffffff1673ffffffffffffffffffffffffffffffffffffffff168152602001878152602001868152602001858152602001848152602001806020018060200183810383528581815460018160011615610100020316600290048152602001915080546001816001161561010002031660029004801561022d5780601f106102025761010080835404028352916020019161022d565b820191906000526020600020905b81548152906001019060200180831161021057829003601f168201915b50508381038252848181546001816001161561010002031660029004815260200191508054600181600116156101000203166002900480156102b05780601f10610285576101008083540402835291602001916102b0565b820191906000526020600020905b81548152906001019060200180831161029357829003601f168201915b50509a505050505050505050505060405180910390f35b34156102d257600080fd5b6102da6106f8565b6040518082815260200191505060405180910390f35b34156102fb57600080fd5b610303610704565b6040518082815260200191505060405180910390f35b341561032457600080fd5b61033a600480803590602001909190505061070a565b005b341561034757600080fd5b61035d60048080359060200190919050506107fc565b604051808981526020018873ffffffffffffffffffffffffffffffffffffffff1673ffffffffffffffffffffffffffffffffffffffff1681526020018781526020018681526020018581526020018481526020018060200180602001838103835285818151815260200191508051906020019080838360005b838110156103f15780820151818401526020810190506103d6565b50505050905090810190601f16801561041e5780820380516001836020036101000a031916815260200191505b50838103825284818151815260200191508051906020019080838360005b8381101561045757808201518184015260208101905061043c565b50505050905090810190601f1680156104845780820380516001836020036101000a031916815260200191505b509a505050505050505050505060405180910390f35b60006104a4610a67565b67016345785d8a0000341115156104ba57600080fd5b846203f480811115156104cc57600080fd5b60005492508282600001818152505085826000018181525050848260c00181905250838260e001819052503482604001818152505033826020019073ffffffffffffffffffffffffffffffffffffffff16908173ffffffffffffffffffffffffffffffffffffffff1681525050827ff94365aedd51380e831104f81e6b13b35502dc79919e9697e84865a61b0163d1333489604051808473ffffffffffffffffffffffffffffffffffffffff1673ffffffffffffffffffffffffffffffffffffffff168152602001838152602001828152602001935050505060405180910390a281600160008060008154809291906001019190505581526020019081526020016000206000820151816000015560208201518160010160006101000a81548173ffffffffffffffffffffffffffffffffffffffff021916908373ffffffffffffffffffffffffffffffffffffffff16021790555060408201518160020155606082015181600301556080820151816004015560a0820151816005015560c0820151816006019080519060200190610665929190610acf565b5060e0820151816007019080519060200190610682929190610acf565b5090505082925050509392505050565b60016020528060005260406000206000915090508060000154908060010160009054906101000a900473ffffffffffffffffffffffffffffffffffffffff1690806002015490806003015490806004015490806005015490806006019080600701905088565b67016345785d8a000081565b60005481565b80600a600160008381526020019081526020016000206002015481151561072d57fe5b043411151561073b57600080fd5b816000548110151561074c57600080fd5b826000600160008381526020019081526020016000206004015414151561077257600080fd5b6000600160008381526020019081526020016000206003015414151561079757600080fd5b3373ffffffffffffffffffffffffffffffffffffffff16847f18be87826d097132e10d5ccd84dc390fdf2c7fc076627090ef34bc3ea418a75260405160405180910390a342600160008681526020019081526020016000206003018190555050505050565b60008060008060008061080d610b4f565b610815610b4f565b61081d610a67565b896000548110151561082e57600080fd5b600160008c81526020019081526020016000206101006040519081016040529081600082015481526020016001820160009054906101000a900473ffffffffffffffffffffffffffffffffffffffff1673ffffffffffffffffffffffffffffffffffffffff1673ffffffffffffffffffffffffffffffffffffffff16815260200160028201548152602001600382015481526020016004820154815260200160058201548152602001600682018054600181600116156101000203166002900480601f01602080910402602001604051908101604052809291908181526020018280546001816001161561010002031660029004801561096f5780601f106109445761010080835404028352916020019161096f565b820191906000526020600020905b81548152906001019060200180831161095257829003601f168201915b50505050508152602001600782018054600181600116156101000203166002900480601f016020809104026020016040519081016040528092919081815260200182805460018160011615610100020316600290048015610a115780601f106109e657610100808354040283529160200191610a11565b820191906000526020600020905b8154815290600101906020018083116109f457829003601f168201915b5050505050815250509150816000015182602001518360400151846060015185608001518660a001518760c001518860e00151819150809050995099509950995099509950995099505050919395975091939597565b6101006040519081016040528060008152602001600073ffffffffffffffffffffffffffffffffffffffff16815260200160008152602001600081526020016000815260200160008152602001610abc610b63565b8152602001610ac9610b63565b81525090565b828054600181600116156101000203166002900490600052602060002090601f016020900481019282601f10610b1057805160ff1916838001178555610b3e565b82800160010185558215610b3e579182015b82811115610b3d578251825591602001919060010190610b22565b5b509050610b4b9190610b77565b5090565b602060405190810160405280600081525090565b602060405190810160405280600081525090565b610b9991905b80821115610b95576000816000905550600101610b7d565b5090565b905600a165627a7a723058204c1836c6d2af3fee583e5e643227c1243a211e3d681258b5f0a31ca2533090840029",
  "source": "pragma solidity ^0.4.18;\r\n\r\n\r\ncontract PartTime {\r\n    \r\n    //Job structure\r\n    struct Job {\r\n        uint256 id;\r\n        address creator;\r\n        uint256 salary;\r\n        uint256 start;\r\n        uint256 end;\r\n        uint256 timeOut;\r\n        bytes title;\r\n        bytes description;\r\n    }\r\n\r\n    //New job append\r\n    event NewJob(uint256 indexed id,\r\n    address creator,\r\n    uint256 salary,\r\n    uint256 timeOut);\r\n\r\n    //An woker start working\r\n    event TakeJob(\r\n    uint256 indexed id,\r\n    address indexed labor);\r\n\r\n    //Minium accept salary\r\n    uint256 constant public MINIUM_SALARY = 0.1 ether;\r\n\r\n    //The number of jobs\r\n    uint256 public totalJob;\r\n\r\n    //Mapped data\r\n    mapping (uint256 => Job) public jobData;\r\n    \r\n    //Transaction must contant Ethereum\r\n    modifier onlyHaveFund {\r\n        require(msg.value > MINIUM_SALARY);\r\n        _;\r\n    }\r\n\r\n    //Valid timeOut should be greater than 3 days\r\n    modifier onlyValidTimeOut(uint256 timeOut) {\r\n        require(timeOut > 3 days);\r\n        _;\r\n    }\r\n\r\n    //Check valid job Id\r\n    modifier onlyValidId(uint256 jobId) {\r\n        require(jobId < totalJob);\r\n        _;\r\n    }\r\n\r\n    //Mortgage should be greater than 1/10\r\n    modifier onlyValidMortgage(uint256 jobId) {\r\n        require(msg.value > jobData[jobId].salary/10);\r\n        _;\r\n    }\r\n\r\n    //Check is it a taked job\r\n    modifier onlyValidJob(uint256 jobId) {\r\n        require(jobData[jobId].end == 0);\r\n        require(jobData[jobId].start == 0);\r\n        _;\r\n    }\r\n\r\n    //Append new job to mapping\r\n    function\r\n    createJob (uint256 timeOut, bytes title, bytes description)\r\n    public onlyHaveFund onlyValidTimeOut(timeOut) payable returns(uint256 jobId)\r\n    {\r\n        // Saving a little gas by create a temporary object\r\n        Job memory newJob;\r\n\r\n        // Assign jobId\r\n        jobId = totalJob;\r\n        \r\n        newJob.id = jobId;\r\n        newJob.id = timeOut;\r\n        newJob.title = title;\r\n        newJob.description = description; \r\n        newJob.salary = msg.value;\r\n        newJob.creator = msg.sender;\r\n\r\n        //Trigger event\r\n        NewJob(jobId, msg.sender, msg.value, timeOut);\r\n\r\n        // Append newJob to jobData\r\n        jobData[totalJob++] = newJob;\r\n\r\n        return jobId;\r\n    }\r\n\r\n    //Take job\r\n    function\r\n    takeJob (uint256 jobId)\r\n    public onlyValidMortgage(jobId) onlyValidId(jobId) onlyValidJob(jobId)\r\n    {\r\n        //Trigger event to log labor\r\n        TakeJob(jobId, msg.sender);\r\n\r\n        //Change working state\r\n        jobData[jobId].start = block.timestamp;\r\n    }\r\n\r\n    //Veiw job data\r\n    function\r\n    viewJob(uint256 jobId)\r\n    public onlyValidId(jobId) constant returns (\r\n    uint256 id,\r\n    address creator,\r\n    uint256 salary,\r\n    uint256 start,\r\n    uint256 end,\r\n    uint256 timeOut,\r\n    bytes title,\r\n    bytes description)\r\n    {\r\n        Job memory jobReader = jobData[jobId];\r\n        return (jobReader.id,\r\n        jobReader.creator,\r\n        jobReader.salary,\r\n        jobReader.start,\r\n        jobReader.end,\r\n        jobReader.timeOut,\r\n        jobReader.title,\r\n        jobReader.description);\r\n    }\r\n \r\n}\r\n",
  "sourcePath": "C:\\Users\\tad88\\My Projects\\part-time-dapp\\contracts\\PartTime.sol",
  "compiler": {
    "name": "solc",
    "version": "0.4.19+commit.c4cbbb05.Emscripten.clang"
  },
  "schemaVersion": "2.0.0",
  "updatedAt": "2018-03-17T10:09:04.666Z"
}