{
  "contractName": "PartTime",
  "abi": [
    {
      "constant": true,
      "inputs": [
        {
          "name": "",
          "type": "uint256"
        }
      ],
      "name": "jobData",
      "outputs": [
        {
          "name": "id",
          "type": "uint256"
        },
        {
          "name": "creator",
          "type": "address"
        },
        {
          "name": "salary",
          "type": "uint256"
        },
        {
          "name": "title",
          "type": "bytes"
        },
        {
          "name": "description",
          "type": "bytes"
        }
      ],
      "payable": false,
      "stateMutability": "view",
      "type": "function"
    },
    {
      "constant": false,
      "inputs": [
        {
          "name": "salary",
          "type": "uint256"
        },
        {
          "name": "title",
          "type": "bytes"
        },
        {
          "name": "description",
          "type": "bytes"
        }
      ],
      "name": "createJob",
      "outputs": [
        {
          "name": "jobId",
          "type": "uint256"
        }
      ],
      "payable": false,
      "stateMutability": "nonpayable",
      "type": "function"
    }
  ],
  "bytecode": "0x6060604052341561000f57600080fd5b61054c8061001e6000396000f30060606040526004361061004c576000357c0100000000000000000000000000000000000000000000000000000000900463ffffffff16806326bab63c1461005157806348955b091461010e575b600080fd5b341561005c57600080fd5b6100f8600480803590602001909190803590602001908201803590602001908080601f0160208091040260200160405190810160405280939291908181526020018383808284378201915050505050509190803590602001908201803590602001908080601f01602080910402602001604051908101604052809392919081815260200183838082843782019150505050505091905050610291565b6040518082815260200191505060405180910390f35b341561011957600080fd5b61012f60048080359060200190919050506103c1565b604051808681526020018573ffffffffffffffffffffffffffffffffffffffff1673ffffffffffffffffffffffffffffffffffffffff16815260200184815260200180602001806020018381038352858181546001816001161561010002031660029004815260200191508054600181600116156101000203166002900480156101fa5780601f106101cf576101008083540402835291602001916101fa565b820191906000526020600020905b8154815290600101906020018083116101dd57829003601f168201915b505083810382528481815460018160011615610100020316600290048152602001915080546001816001161561010002031660029004801561027d5780601f106102525761010080835404028352916020019161027d565b820191906000526020600020905b81548152906001019060200180831161026057829003601f168201915b505097505050505050505060405180910390f35b600061029b610415565b6000549150818160000181815250508381606001819052508281608001819052508481604001818152505033816020019073ffffffffffffffffffffffffffffffffffffffff16908173ffffffffffffffffffffffffffffffffffffffff168152505080600160008060008154809291906001019190505581526020019081526020016000206000820151816000015560208201518160010160006101000a81548173ffffffffffffffffffffffffffffffffffffffff021916908373ffffffffffffffffffffffffffffffffffffffff160217905550604082015181600201556060820151816003019080519060200190610398929190610467565b5060808201518160040190805190602001906103b5929190610467565b50905050509392505050565b60016020528060005260406000206000915090508060000154908060010160009054906101000a900473ffffffffffffffffffffffffffffffffffffffff1690806002015490806003019080600401905085565b60a06040519081016040528060008152602001600073ffffffffffffffffffffffffffffffffffffffff168152602001600081526020016104546104e7565b81526020016104616104e7565b81525090565b828054600181600116156101000203166002900490600052602060002090601f016020900481019282601f106104a857805160ff19168380011785556104d6565b828001600101855582156104d6579182015b828111156104d55782518255916020019190600101906104ba565b5b5090506104e391906104fb565b5090565b602060405190810160405280600081525090565b61051d91905b80821115610519576000816000905550600101610501565b5090565b905600a165627a7a7230582040949153c71f0991e933ff31a7fe9191084ca9c713a9fd144a0532e25c344f8e0029",
  "source": "pragma solidity ^0.4.17;\r\n\r\ncontract PartTime {\r\n  \r\n  struct Job {\r\n    uint256 id;\r\n    address creator;\r\n    uint256 salary;\r\n    bytes title;\r\n    bytes description;\r\n  }\r\n\r\n  uint256 totalJob;\r\n\r\n  mapping (uint256 => Job) public jobData;\r\n  \r\n\r\n  function createJob(uint256 salary, bytes title, bytes description)\r\n  returns(uint256 jobId)\r\n  {\r\n    // Saving a little gas by create a temporary object\r\n    Job memory newJob;\r\n\r\n    // Assign jobId\r\n    jobId = totalJob;\r\n    \r\n    newJob.id = jobId;\r\n    newJob.title = title;\r\n    newJob.description = description; \r\n    newJob.salary = salary;\r\n    newJob.creator = msg.sender;\r\n\r\n    // Append newJob to jobData\r\n    jobData[totalJob++] = newJob;\r\n  }\r\n \r\n}\r\n",
  "sourcePath": "C:\\Users\\tad88\\My Projects\\part-time-dapp\\contracts\\PartTime.sol",
  "compiler": {
    "name": "solc",
    "version": "0.4.19+commit.c4cbbb05.Emscripten.clang"
  },
  "schemaVersion": "2.0.0",
  "updatedAt": "2018-03-14T12:16:50.245Z"
}